:020000040800F2
:1000000090080020A1010008C127000881240008F1
:10001000712600089D1200088F2C000800000000C7
:10002000000000000000000000000000612800083F
:10003000A1130008000000005F28000863280008E2
:10004000BB010008BB010008BB010008BB010008A0
:10005000BB010008BB010008BB010008BB01000890
:10006000BB010008BB010008BB010008BB01000880
:10007000BB010008BB010008BB010008BB01000870
:10008000BB010008BB010008BB010008BB01000860
:10009000BB010008BB010008BB010008BB01000850
:1000A000BB010008BB010008BB010008BB01000840
:1000B000BB010008BB010008C9280008BB010008FB
:1000C000BB010008BB010008BB010008BB01000820
:1000D000BB010008BB010008BB010008BB01000810
:1000E000BB010008BB010008BB01000800F002F8DA
:1000F00000F047F80AA090E8000C82448344AAF17B
:100100000107DA4501D100F03CF8AFF2090EBAE878
:100110000F0013F0010F18BFFB1A43F0010318473B
:100120001434000034340000103A24BF78C878C179
:10013000FAD8520724BF30C830C144BF04680C60ED
:10014000704700000023002400250026103A28BF35
:1001500078C1FBD8520728BF30C148BF0B60704739
:10016000662903F08681002070471FB500F03AFB36
:1001700004000020002102F015FEE0601FBD10B554
:1001800010BD00F02FFC1146FFF7EFFF02F0EEFD6F
:1001900000F04DFC03B4FFF7F2FF03BC00F090FC4D
:1001A0000948804709480047FEE7FEE7FEE7FEE70B
:1001B000FEE7FEE7FEE7FEE7FEE7FEE70448054947
:1001C000054A064B70470000C5280008ED000008EE
:1001D000900200209008002090040020900400204D
:1001E0000FB47CB50C0009AA009001D02044401E39
:1001F000084B7B4469460190089800F0D2FA054606
:100200001CB10020694600F0DFFA28467CBC5DF88E
:1002100014FB0000DD0500002DE9F0474FF0000A57
:1002200089460446C0F820A02046E1688847002897
:1002300076D0252806D0D4E901219047206A401CB9
:100240002062F1E7E168204600258847C4F81CA039
:1002500006460027C4F818A02A2E09D0304602F01E
:100260007DFD38B304EB8708303EC8F8186019E00C
:1002700059F8041B204604EB87029161E168884726
:10028000012F064618D1E069002820DA25F0200564
:100290001DE0D8F8180000EB800006EB4000303875
:1002A000C8F818002046E1688847064602F056FD67
:1002B0000028EED1012F0AD02E2E08D12046E16869
:1002C00088477F1C0646022F45F02005C4DBA06945
:1002D000002803DA404245F00105A061E80701D09B
:1002E00025F01005B6B1A6F14100192802D8203634
:1002F00045F400654A463146204625604D46FFF7E5
:100300002FFF58B1012806D0ED1D25F0070000F1A0
:10031000080989E704E005F1040985E730468AE722
:10032000206ABDE8F0874FF0000200B513469446FE
:100330009646203922BFA0E80C50A0E80C50B1F13D
:100340002001BFF4F7AF090728BFA0E80C5048BF51
:100350000CC05DF804EB890028BF40F8042B08BFEF
:10036000704748BF20F8022B11F0804F18BF00F8EB
:10037000012B704770477047704770472DE9FF4F5A
:100380000C461E464FF0FF378BB0D2E90001DDF876
:1003900060800A908A46C1F30A5505B93D4600219E
:1003A00008464FF00000BAF1000F00F4400005DAF3
:1003B00000EB80004FF4400101EA50004FEA9059F1
:1003C000B9F1010F00DDB9460A9850EA4A000ED093
:1003D00044F61050A5F2FF3545432F14B8F1000F35
:1003E0001ED07542291E1EDDC9F100021CE0B8F1C5
:1003F000010F4FF0000001D0302103E0F24305E08F
:100400002154401CB042FBDB304600220021215425
:100410000B99C1F80880C1E900200FB0BDE8F08F4A
:10042000BD1B6D1CDEE74A4600DA694206A800F0F3
:1004300063FA06AB93E8070003AB83E80700504676
:100440000A9900F044FB8DE80700A0F500501F3822
:1004500000900398002D0ADD42F21F014A4608442D
:10046000002303A90390684600F0ADFD09E0A0F564
:1004700000504A461F38002303A90390684600F045
:10048000B7FD8DE807000004000C03D04FF0FF30EB
:10049000410800E01046B8F1000F03D0002200929E
:1004A00015461EE0751E05D400F0A0F930326255E5
:1004B0006D1EF9D5B3460122084302D000227F1CED
:1004C00004E02078302801D100227F1E002A0997FD
:1004D00084D01DE0112D07DA00F088F93032625522
:1004E0006D1C50EA0102F5D1084302D00098C8B152
:1004F0000EE00021681E05E0235C625C6354225418
:10050000401E491C8142F7DBAB46A81B401E0990E8
:10051000002004F80B000B98099AC0F80880C0E985
:10052000002B7AE711264FF0000857E72DE9F04F2E
:1005300088460446D21D22F0070191B0D1E900019E
:10054000CDE90A0102F0E6FB02460B98C00F01D08C
:100550002D2007E02068810701D52B2002E0202113
:1005600001EAC000032A099001D0072A05DB0346EF
:100570004146204600F080F90BE12078800601D545
:10058000E06900E00620B8F1650F814606D0B8F1B9
:10059000660F18D0B8F1670F70D131E00020B9F1C3
:1005A000110F009001DB112301E009F101030AAAF8
:1005B00001A90CA8FFF7E2FEDDE90C70002609F1A5
:1005C0000105834647E001204B4600904FF000476D
:1005D0000AAA01A90CA8FFF7D1FEDDE90DB00C991C
:1005E0005D46002610B909F101000D18B9EB0500B0
:1005F00003D4C0F1FF3609F10105A5EB09002BE09A
:10060000B9F1010F01DA4FF001090020B9F1110F22
:100610000090484601DD112300E003460AAA01A923
:100620000CA8FFF7ABFEDDE90C704D4600268346B3
:10063000207800070AD4AB4500DA5D4601A8012DF9
:1006400004DD411911F8011C302907D04F4502DAA9
:1006500017F1040F04DA012082460FE06D1EEEE769
:10066000002F02DCED1B3E4403E0781CA84200DDB5
:100670007D1CB81B00F1010A4FF0004720780007ED
:1006800003D4AA4501DB4FF0FF3A0021B7F1004F38
:100690000DF143088DF8431024D002202B23002FA6
:1006A00001DA7F422D230A21021EA0F1010000DCA5
:1006B0005FB197FBF1FC97FBF1F201FB1C7C174645
:1006C0000CF1300C08F801CDEEE7A8F10100037041
:1006D0002188090501D5452100E06521A0F1010827
:1006E00000F8011C09980FA9A1EB0807FF1D00B134
:1006F0000120411901EBEA70A1693844081A401E33
:10070000A0612078C00602D42046AFF3008009988B
:1007100028B1D4E901219047206A401C206220784A
:10072000C00622D52046AFF300801EE0002E04DB79
:10073000B34502DD01A8805D00E03020D4E901214D
:100740009047206A401C2062761CAAF101005FEAF3
:10075000000A0AD100F046F8C0680168405CD4E99C
:1007600001219047206A401C2062281EA5F1010546
:10077000DCDC07E0D4E9012118F8010B9047206A7E
:10078000401C2062381EA7F10107F3DC2046AFF3BE
:100790000080032011B041E601694A1C026108781B
:1007A000704700B58FB0CDE90131002105910549B1
:1007B0007944CDE9031011466846FFF72DFD0FB0CF
:1007C00000BD0000E5FFFFFF0A6802F8010B0A60A8
:1007D0007047D1E900239A4202D2531C0B6010707B
:1007E00070470000004870474C02002030B5B0F15F
:1007F0000A024FEA900E71F100034EEA817EB0EBDF
:100800000E0061EB91014FEA101E4EEA017E10EBE3
:100810000E0041EB11114FEA102E4EEA016E10EB63
:100820000E0041EB11214FEA104E4EEA014E10EB43
:100830000E0041EB1141401841F100014FEAD00098
:1008400040EA41704FEAD10110EB80054FEA810484
:1008500044EA907444EB01046D1944EB0404521B08
:10086000A3414FF0000348BF0A3200D530BD401C01
:1008700041F1000130BD00002DE9F0411F46044662
:1008800003260168072A01F4006004DB08B116A5FD
:1008900005E016A503E008B115A500E015A521F0B7
:1008A00010002060A069C01EA0610FB1401EA061B1
:1008B0002046AFF300804FB1D4E90121384690477C
:1008C000206A401C2062C01C206206E0206AFAE711
:1008D000D4E9012115F8010B9047761EF8D2204685
:1008E000AFF30080BDE8F0814E414E006E616E00B6
:1008F000494E4600696E66002DE9F047814616466E
:100900008AB0354878440DC88DE80D0032487844E7
:10091000801C03AC0DC884E80D0041F69B300844F0
:10092000372190FBF1F290FBF1F5A5F1800501FB79
:1009300012041B3C02D56442012000E00020DFF8D5
:1009400098A080460027FA44AAF1BE0A0EE0E0070C
:100950000AD03246684607EB470101230AEB8101C2
:1009600000F046FB8DE8070064107F1C002CEED1E0
:10097000194F7F44AE3F19E0E80715D007EB04108C
:100980000DF1180A90E80E008AE80E00C068F042E7
:1009900001D1981908903246012306A903A800F056
:1009A00027FB03AB83E807006D10641C002DE3D127
:1009B0004FF0010332466946B8F1000F03A802D098
:1009C00000F001FB01E000F013FBC9E90001C9F8E8
:1009D00008200AB0BDE8F087142C000000487047DA
:1009E0002C0200207546FFF7F9FFAE460500694668
:1009F000534620F00700854618B020B5FFF7DEFB10
:100A0000BDE820404FF000064FF000074FF000080F
:100A10004FF0000B21F00701AC46ACE8C009ACE890
:100A2000C009ACE8C009ACE8C0098D46704710B5F4
:100A30000446AFF300802046BDE81040FFF7AABB94
:100A40004FF0013C50F8042B51F8043B9A4221D15D
:100A5000A2EB0C03934313EACC1317D150F8042BE9
:100A600051F8043B9A4215D1A2EB0C03934313EACD
:100A7000CC130BD150F8042B51F8043B9A4209D106
:100A8000A2EB0C03934313EACC13DBD04FF000002E
:100A9000704700BFD01A01BAB1FA81F101F0180114
:100AA00022FA01F0CB40C1F12001DBB2C0B2C01A82
:100AB0002CFA01F3D11A914311EAC311E6D1704720
:100AC00001491820ABBEFEE72600020070475FEA2E
:100AD000400C08BF91F0000F4FEA8C234FEAC1226F
:100AE00043EA51514FEA1C5018BF00F5F0404FEA5D
:100AF000300018BF41F000415FEA6C5C00F02980D3
:100B0000BCF1FF3F08BF40F080407047130C06BFA8
:100B100012044FF0100C4FF0000C130E04BF120221
:100B20000CF1080C130F04BF12010CF1040C930F0D
:100B300004BF92000CF1020CD30F04BF52000CF161
:100B4000010C11464FF00002A0F11F00A0EB0C00B9
:100B5000704711F0004F08BF704731F000413FF47B
:100B6000D5AF0B0C06BF09044FF0100C4FF0000C72
:100B70000B0E04BF09020CF1080C0B0F04BF090196
:100B80000CF1040C8B0F04BF89000CF1020CCB0F8D
:100B900004BF49000CF1010CCCF12003A0EB0C00C8
:100BA00022FA03F302FA0CF241EA030100F1010018
:100BB000704720F07F4C80EA030023F07F47ACEBC6
:100BC000070303F57C5300F0004003F1FF032DE918
:100BD00080494FEA154B09B44FEA144325EA0B4EFE
:100BE00024EA03480FF2042606EB132749083E784F
:100BF0005FEA320203FB0667C7F5000707FB06F64C
:100C00004FEA54374FEAD64606F1020607FB066C58
:100C1000CCF1005C4FEA1C472CEA074C07FB06F4BA
:100C20000CFB06F504EB15464FEA961634BF002080
:100C30004FF000404FEAD13706FB07FC4FEA1C4C4F
:100C40000CFB0BF7D21B03FB0CF761EB07010CFB52
:100C50000EF7B0EB074072EB17420CFB08F734BFFE
:100C6000A2EB0742B2EB074261EB17414FEA0C449B
:100C70004FEA910706FB07FC4FEA1C4C0CFB0BF7F5
:100C8000B0EBC74072EB573203FB0CF734BFA2EB5B
:100C9000C742B2EBC74261EB57310CFB0EF7B0EB2A
:100CA000C70072EB57720CFB08F734BFA2EBC70208
:100CB000B2EBC70261EB5771039F4FEA816141EAD2
:100CC000921104EBCC044FEAD1374FEA826206FB63
:100CD00007FC42EA90124FEA80604FEA1C4C0CFB82
:100CE0000BF7D21B03FB0CF761EB07010CFB0EF7B4
:100CF000B0EB074072EB17420CFB08F734BFA2EBD6
:100D00000742B2EB074261EB17414FEA8C554FEABD
:100D1000910704EB9C2406FB07FC4FEA1C4C0CFBE0
:100D20000BF7B0EBC74072EB573203FB0CF734BF45
:100D3000A2EBC742B2EBC74261EB57310CFB0EF797
:100D4000B0EBC70072EB57720CFB08F734BFA2EB95
:100D5000C702B2EBC70261EB577115EB4C254FEAA6
:100D6000816141EA92114FEA82624FEAD13742EA49
:100D7000901206FB07FC44F100044FEA80604FEA42
:100D80001C4C0CFB0BF7D21B03FB0CF761EB0701B0
:100D90000CFB0EF7B0EB074072EB17420CFB08F7A9
:100DA00034BFA2EB0742B2EB074261EB174115EBF0
:100DB0001C154FEA813141EA92414FEA823242EA00
:100DC00090424FEA80304FEA0C7644F1000448EA42
:100DD00003434EEA0B484FF0000EB2EB080C71EBE8
:100DE000030724BF624639464EEB0E0E4FF0000B50
:100DF0000018524149414BEB0B0BB2EB080C71EB65
:100E000003077BF1000B24BF624639464EEB0E0E02
:100E10004FF0000B0018524149414BEB0B0BB2EB6A
:100E2000080C71EB03077BF1000B24BF62463946C7
:100E30004EEB0E0E51EA020718BF46F0010616EB04
:100E40000E7655F1000254F1000103D5BDE8890189
:100E5000BDE80088BDE88901BDE80048B6195241E7
:100E600041EB0101A3F10103704780807F7E7D7C0F
:100E70007B7A7978777676757473727171706F6E2C
:100E80006E6D6C6C6B6A6A696868676666656464D7
:100E9000636362616160605F5F5E5E5D5D5C5C5B61
:100EA0005B5A5A59595858575756565555555454D0
:100EB000535352525251515050504F4F4F4E4E4D2E
:100EC0004D4D4C4C4C4B4B4B4A4A4A49494948487A
:100ED00048474747474646464545454444444443BA
:100EE00043434342424242414141002B9C4630D45D
:100EF00077002BD01CB54FEA370703B44FF0100032
:100F00004FF01001BAF1000F06D0BCF1000FDCBFAA
:100F100040F0080040F008014FF000000FBCBDE8B1
:100F200010400BF1010BBBF1010F08BF5FEA17077F
:100F300022BF12F1010211F101014FF0004143F112
:100F4000000300F0004043EA00007047F9D357085F
:100F5000D0E746EA064613F1400F4FEA16461FDD7A
:100F600013F1200FDFBF16430A46002120335B42F6
:100F7000BED0C3F1200746EA064602FA07F74FEA59
:100F8000164646EA0706C3F1200722FA03F201FAE1
:100F900007F721FA03F14FF0000342EA0702A7E73F
:100FA00046EA020646EA06464FEA164646EA0106C1
:100FB000BCBF46EA0646360C4FF000034FF0000275
:100FC0004FF0000194E72DE9804C9A46934670B4A7
:100FD00091E8380007C831EA400C48BF34EA430CB6
:100FE00003D5FFF7E6FDFFF780FFF0BCBDE8008CFE
:100FF0002DE9804C9A46934670B491E8380007C8B2
:1010000010F0804F08BF13F0804F03D100F005F8B7
:10101000FFF76BFFF0BCBDE8008C20F07F4780EA53
:10102000030023F07F4C07EB0C03A3F57C5300F087
:101030000040A3F1FE0392F0000F00F0B38095F0A2
:10104000000F00F077802DE901494FEA11404FEA87
:10105000144621EA004800FB06FC24EA064708FB88
:1010600006F607FB08F800FB07F718EB06484CEB01
:10107000164C4FEA124B18EB07484FEA15464CEB5B
:10108000174022EA0B4E0BFB06FC25EA06470EFB37
:1010900006F607FB0EFE0BFB07F71EEB064E4CEBAE
:1010A000164C4FF000061EEB074E4CEB174B18EB9F
:1010B0000B0840F1000018EB0E0B58EB000840F154
:1010C00000008F1A4FF000013CBFC943661B14BFDC
:1010D000B5EB040C00213CBFC943F61B4FEA174493
:1010E0004EEA8E0E27EA04454FEA1C4704FB0762CE
:1010F0002CEA074C05FB07F70CFB05F604FB0CFC80
:1011000016EB074642EB174216EB0C4642EB1C422D
:101110001BEB060658EB0202414146EA9E0601D54A
:10112000BDE80189B619524141EB0101A3F1010368
:10113000BDE801894FEA14454FEA114724EA054604
:1011400021EA074C05FB07F406FB07F70CFB06F149
:1011500005FB0CFC11EB074144EB17444FEA124727
:1011600011EB0C4144EB1C4422EA074C05FB07F24F
:1011700006FB07F70CFB06F605FB0CFC16EB074617
:1011800042EB174216EB0C4642EB1C456A1854F131
:10119000000148BF7047B619524141EB0101A3F16C
:1011A0000103704795F0000F37D04FEA11424FEA24
:1011B000144721EA024624EA074C02FB07F106FB2A
:1011C00007F70CFB06F402FB0CFC14EB074441EBA5
:1011D00017414FEA154714EB0C4441EB1C4125EA3B
:1011E000074C02FB07F506FB07F70CFB06F602FBB4
:1011F0000CFC16EB074645EB174516EB0C4645EB8A
:101200001C42121951F1000148BF7047B6195241F2
:1012100041EB0101A3F1010370474FEA14454FEA86
:10122000114724EA054621EA074C05FB07F106FBB6
:1012300007F70CFB06F24FF0000605FB0CFC12EB67
:10124000074241EB174112EB0C4251EB1C4148BFE6
:101250007047921841EB0101A3F1010370470000B0
:101260001FB509480122CDE900020221CDE90201A2
:101270000023064A0649074801F0FCF904B0064875
:10128000BDE8104001F004BD000C0140A8000020A2
:10129000F00000207800002080010020FEE7000020
:1012A0001CB50B490B48CDE900010B4B00220B4943
:1012B0000B4801F0C9FA0B490B48CDE900010B4B73
:1012C0004FF07D520A490B4801F0BEFA1CBD0000E8
:1012D0000000A0C30000A0438FC2F53CCDCC4C3D24
:1012E0004800002000007AC400007A44A69B443CD9
:1012F000000008411800002010B501F0E7FE014988
:10130000C86010BD4800002070B586B01E4801F0CE
:1013100025FA1D4C606901F0D9FE1C4D1D4928625B
:10132000E0681B4C206201F031FF06461A49606AF2
:1013300001F02CFF314601F07DFD6062284601F08E
:1013400040FAE060204601F03CFA01F0A3FE01B251
:101350000D4801F0B5F911480168491C01600529E3
:101360000FDB00210160606A0090206A0190E06854
:101370000290286A0390E86804900421684601F00E
:101380008DFC06B070BD00007800002048000020F1
:1013900018000020CCCC4C3ECDCC4C3F140000209B
:1013A000704772B6FEE700002DE9F84FDFF8B891FC
:1013B0000024A9F1040B23460F2709F1040AABF11D
:1013C000040EC9E00125A5402A40AA427DD1674EFE
:1013D000D1F804C0ACEB0608B44532D014DCBCF143
:1013E000030F3AD009DCBCF1000F2AD0BCF1010F89
:1013F0001CD0BCF1020F31D11DE0BCF1110F17D090
:10140000BCF1120F2AD119E0B8F5881F19D006DCFB
:10141000B8F5803F15D0B8F5801F1FD111E0B8F5A1
:10142000001F0ED0B8F5041F18D10AE0CB6815E0F4
:10143000CB681B1D12E0CB6808330FE0CB680C3380
:101440000CE08B682BB1012B4FF0080303D04561F2
:1014500004E0042302E0056100E00023FF2A01D834
:10146000064601E000F104064FEA840501D9A5F122
:101470002005D6F8008007FA05FC28EA0C0803FAD4
:1014800005F548EA0508C6F800804D68ED0062D50C
:10149000374DAE6946F00106AE61AD6924F0030632
:1014A00005F001050095334D06EB050CDCF80850FE
:1014B000A607360F07FA06F825EA0805DFF8B88010
:1014C000404503D14FF0000817E044E0DFF8AC805E
:1014D000404502D14FF001080FE0DFF8A4804045FD
:1014E00002D14FF0020808E0DFF89880404502D1B1
:1014F0004FF0030801E04FF0040808FA06F848EA44
:101500000508CCF808804D68D9F80060ED024D461A
:1015100001D5164300E096432E604D68DAF800606E
:10152000AD02554601D5164300E096432E604D6846
:10153000DBF80060AD035D4601D5164300E096433D
:101540002E604D68DEF80060ED03754601D5164348
:1015500000E096432E60641C0D682A46E5407FF447
:1015600031AFBDE8F88F0000080401400000111001
:10157000001002400000014000080140000C014042
:1015800000100140001401400AB1016170470904D4
:10159000FBE7000001488068704700000000002061
:1015A0000248816802781144816070470000002081
:1015B000074810B5016841F010010160032000F0F8
:1015C00075F80F2000F006F800F024F8002010BD98
:1015D0000020024070B50D4D04464FF47A71287812
:1015E000B1FBF0F00A490968B1FBF0F000F0DCFA59
:1015F00048B9102C07D200222146501E00F036F8C0
:1016000000206C6070BD012070BD00000000002053
:101610000C0000200C4808B5816941F0010181618E
:10162000816901F001010091C16941F08051C161FE
:10163000C06900F0805000900448416821F0E061EA
:1016400041F00071416008BD0010024000000140FF
:10165000002809DB00F01F020121914040098000B1
:1016600000F1E020C0F8001170470000F0B40E4B0C
:101670001B680C46C3F30223C3F10705042D00D9F0
:101680000425191D072901D2002300E0DB1E0126D5
:1016900006FA05F1491E214099409E40761E1640EB
:1016A0003143F0BC01F04ABB0CED00E0064900F00C
:1016B000070208684FF6FF03184040EA0220034A79
:1016C00010430860704700000CED00E00000FA05D0
:1016D0002DE9F0470F46050061D0434E306800F019
:1016E0000700B84209D2306820F007003843306064
:1016F000306800F00700B84251D128683B4C8107A0
:1017000012D5400703D5606840F4E0606060287837
:10171000000703D5606840F4605060606068A968A5
:1017200020F0F000084360602878C00728D068687F
:10173000012810D02168022810D0890700292EDA4C
:10174000616821F0030101436160FFF723FF8046D8
:1017500041F288390DE021688903EFE78901EDE75F
:10176000FFF718FFA0EB0801494502D90320BDE8A7
:10177000F0876068696800F00C00B0EB810FEFD172
:10178000306800F00700B8420BD9306820F007003D
:1017900038433060306800F00700B84201D00120C3
:1017A000E5E72878400705D56068E96820F4E0603F
:1017B000084360602878000706D56068296920F42E
:1017C000605040EAC100606000F038F86168084A83
:1017D000C1F30311515CC84006490860064800681F
:1017E000FFF7F8FE0020C2E7002002400010024090
:1017F000883400080C00002004000020044805493B
:1018000000684968044AC1F30221515CC84070472E
:101810000C000020001002409834000804480549DC
:1018200000684968044AC1F3C221515CC84070474E
:101830000C00002000100240983400080E4A516845
:101840000E4801F00C03042B11D0082B0FD10C48CB
:10185000C1F38343C903C05C0AD55168084AC1F388
:101860004041921E515C054A5043B0FBF1F0704775
:1018700004494843704700000010024000127A00FB
:101880007834000800093D002DE9F84F040070D0BD
:101890002078C04DC00749D06868C0F38100012896
:1018A00007D06868C0F38100022809D16868C003C6
:1018B00006D52868800339D560680028E7D035E070
:1018C0006068B0F5803F0BD010B1B0F5A02F11D0FB
:1018D000286820F480302860286820F4802002E006
:1018E000286840F480302860606890B1FFF752FEAD
:1018F00006460AE0286840F480202860F0E700BF30
:10190000FFF748FE801B642873D828688003F7D54A
:101910000CE0FFF73FFE064605E000BFFFF73AFE8A
:10192000801B6428F0D828688003F7D420789A4E6A
:1019300080074FF001094FF0000839D5686810F0B2
:101940000C0F07D06868C0F38100022809D16868CD
:10195000C00306D42868800714D52069012808D15F
:1019600010E02069B0B1C6F80090FFF713FE0746FB
:1019700005E00AE1FFF70EFEC01B0228C4D8286864
:101980008007F7D52868616920F0F80040EAC100B7
:1019900028600DE0C6F80080FFF7FCFD074604E074
:1019A000FFF7F8FDC01B022823D828688007F7D46A
:1019B000207800072CD57948A169D9B1C0F80090EA
:1019C000FFF7E8FD074604E0FFF7E4FDC01B02282F
:1019D0000FD8686A8007F7D571484FF4FA5100684C
:1019E000B0FBF1F0009000BF0098411E0091FAD2C8
:1019F0000EE080E0C0F80080FFF7CCFD074604E071
:101A0000FFF7C8FDC01B022875D8686A8007F7D4A5
:101A10002078400760D5E8690027C00008D4E8694D
:101A200040F08050E861E869012700F080500090A4
:101A30005C480168C90513D40168834641F480718C
:101A40000160FFF7A7FD824606E000BFFFF7A2FD99
:101A5000A0EB0A0064284ED8DBF80000C005F5D5DD
:101A6000E06801280AD008B1052813D0286A20F0C0
:101A700001002862286A20F0040002E0286A40F091
:101A800001002862E06841F2883B98B1FFF782FDCF
:101A900082460BE0286A40F004002862EEE700BFAF
:101AA000FFF778FDA0EB0A0159455AD8286A80074C
:101AB000F6D50CE0FFF76EFD824605E0FFF76AFD04
:101AC000A0EB0A0159454CD8286A8007F6D41FB10B
:101AD000E86920F08050E861E06988B36968C1F383
:101AE0008101022944D00228C6F8608004D0FFF7A3
:101AF00051FD044638E034E0FFF74CFD074604E0B2
:101B0000FFF748FDC01B02282BD828688001F7D4B6
:101B1000206AB0F5803F05D16868A16820F40030E4
:101B200008436860D4E908010843696821F4741126
:101B300008436860C6F86090FFF72CFD044606E095
:101B400025E000BFFFF726FD001B022809D8286802
:101B50008001F7D51BE000BFFFF71CFD001B02282A
:101B600002D90320BDE8F88F28688001F4D40EE084
:101B70000128F7D06868226A00F48031914204D1CC
:101B8000616A00F47010884201D00120EAE7002069
:101B9000E8E7000000100240000042428004424298
:101BA0000C0000200070004010B5401EB0F1807F96
:101BB00001D3012010BD4FF0E02460610F216017B8
:101BC00001F0BCF80020A06107202061002010BDBA
:101BD0007047704770B590F83C20012A26D0012448
:101BE00080F83C40022280F83D2003685A689D68D6
:101BF00022F070060A6832435A600D4B02689A421E
:101C000008D0B2F1804F05D00A4B9A4202D00A4B5D
:101C10009A4204D1496825F080031943916080F805
:101C20003D40002180F83C10084670BD022070BD88
:101C3000002C0140000400400008004010B50400E2
:101C400003D094F83D0010B107E0012010BD002042
:101C500084F83C00204600F01FF8022084F83D0084
:101C6000211D206800F036FE012084F8460084F82B
:101C70003E0084F83F0084F8400084F8410084F876
:101C8000420084F8430084F8440084F8450084F856
:101C90003D00002010BD000008B500680B498842D7
:101CA00012D10B48C16941F00401C161C069002231
:101CB00000F00400009011461E20FFF7D7FCBDE89D
:101CC00008401E20FFF7C4BC08BD0000000800400B
:101CD0000010024090F83D10012901D0012070470A
:101CE000022180F83D100168CA6842F00102CA6012
:101CF00000680B49884208D0B0F1804F05D00949EF
:101D0000884202D00849884204D1816801F0070165
:101D1000062903D0016841F00101016000207047ED
:101D2000002C0140000400400008004070B504464B
:101D300090F83C000025012817D0012684F83C606B
:101D4000022084F83D002068826822F0770222F4A5
:101D50007F4282600868502838D00DDC20284FD0A0
:101D600005DC90B3102811D14AE0022070BD302864
:101D700046D040280AD13BE060282FD070280DD0F3
:101D8000B0F5805F03D0B0F5005F12D0012584F874
:101D90003D60002084F83C00284670BDCB68D1E946
:101DA0000121206800F0DFFD2068816841F07701A3
:101DB00009E0CB68D1E90121206800F0D4FD20685A
:101DC000816841F480418160E1E719E0CA684968AF
:101DD000206800F07DFE5021206806E0CA6849684E
:101DE000206800F086FE6021206800F0C6FDCEE786
:101DF000CA684968206800F06BFE40212068F4E75B
:101E0000226801461046F0E72DE9F0410D46040036
:101E100003D094F83D0018B108E00120BDE8F0813E
:101E2000002084F83C00204600F040F8022084F8AE
:101E30003D002068816844F2070291438160211DC2
:101E4000206800F047FD226890689169166A2B6847
:101E5000AF69034340F20330814341EA0721A86898
:101E6000EF6908434FF6FC418843E96840EA0720E0
:101E7000014328692F6A000140EA07300843696876
:101E80006D6926F0220646EA05152943936022680B
:101E9000906154F8460B0162012004F81F09E075B7
:101EA0002076E0762077A0750020B7E700B585B0F2
:101EB0000021009101910291039100680D4988422F
:101EC00016D10D48C16941F00201C161C16901F03B
:101ED00002010491816941F00401816180696946D0
:101EE00000F004000490C02000900448FFF75CFA62
:101EF00005B000BD00040040001002400008014091
:101F000070B590F83E60044690F83F5090F842302B
:101F100090F84320022021B104290ED0012E1BD1BC
:101F200014E0012E18D1012B16D184F83E0084F85C
:101F3000420001220021206820E0012D0CD1012A5D
:101F40000AD184F83F0084F8430014E0012D03D146
:101F5000012B01D1012A01D0012070BD84F83E007F
:101F600084F83F0084F8420084F8430001220021F5
:101F7000206800F0EBFC01220421206800F0E6FC60
:101F80002068016841F001010160002070BD7047C8
:101F90002DE9F04104460068C66805694FF0000766
:101FA000A90713D5B10711D5F91E016101202077CA
:101FB000206880698007204602D0FFF7E8FF04E030
:101FC00000F0A2F8204600F045F92777680716D5FB
:101FD000700714D521686FF0040008610220207793
:101FE0002068806910F4407F204602D0FFF7CFFFC1
:101FF00004E000F089F8204600F02CF92777280744
:1020000015D5300713D521686FF00800086104204A
:1020100020772068C0698007204602D0FFF7B7FF0D
:1020200004E000F071F8204600F014F92777E80684
:1020300016D5F00614D521686FF01000086108204D
:1020400020772068C06910F4407F204602D0FFF757
:102050009EFF04E000F058F8204600F0FBF82777D8
:10206000E80708D0F00706D021686FF0010008618A
:10207000204600F03FF9280608D5300606D521682D
:102080006FF0800008612046FFF7A2FD680608D5C2
:10209000700606D521686FF040000861204600F008
:1020A00033F9A8060AD5B00608D521686FF02000DC
:1020B00008612046BDE8F041FFF78BBDBDE8F08127
:1020C00000B585B000210091019102910391006853
:1020D000B0F1804F11D10A48816941F0040181615A
:1020E0008069694600F004000490012000900220FD
:1020F000019003900348FFF757F905B000BD0000B9
:102100000010024000080140704770B5044690F886
:102110003C0000260D4601280FD0012084F83C0029
:102120006AB1042A1DD0082A2FD00C2A3FD00126DC
:10213000002084F83C00304670BD022070BD20684D
:1021400000F024FC2068816941F008018161206869
:10215000816921F004018161206881692A69114344
:1021600011E0206800F03AFC2068816941F40061C8
:1021700081612068816921F48061816120688169C1
:102180002A6941EA02218161D2E7206800F052FC0D
:102190002068C16941F00801C1612068C16921F06E
:1021A0000401C1612068C1692A69114311E02068F6
:1021B00000F06CFC2068C16941F40061C1612068D5
:1021C000C16921F48061C1612068C1692A6941EA5D
:1021D0000221C161ACE710B5040003D094F83D00C2
:1021E00010B107E0012010BD002084F83C0020461B
:1021F00000F01EF8022084F83D00211D206800F048
:1022000069FB012084F8460084F83E0084F83F0012
:1022100084F8400084F8410084F8420084F84300C8
:1022200084F8440084F8450084F83D00002010BD87
:1022300008B50068B0F1804F08D10548C16941F088
:102240000101C161C06900F00100009008BD0000FB
:10225000001002407047000010B50446022249B148
:1022600004290ED0082913D094F84100012816D073
:10227000012010BD94F83E000128F9D184F83E20D9
:102280000FE094F83F000128F2D184F83F2008E0E5
:1022900094F840000128EBD184F8402001E084F854
:1022A00041200122206800F051FB0F49206888423C
:1022B00003D1426C42F4004242642068884208D054
:1022C000B0F1804F05D00949884202D008498842C0
:1022D00004D1816801F00701062903D0016841F0AB
:1022E00001010160002010BD002C014000040040ED
:1022F0000008004000680349884201D1FFF704B894
:102300007047000000080040704770B5040004D01A
:1023100094F84100002510B106E0012070BD84F85A
:102320004050204600F024F8242084F84100206822
:10233000C16821F40051C160204600F013FC206800
:10234000016921F4904101612068416921F02A016D
:1023500041612068C16841F40051C160656420207A
:1023600084F8410084F842006563002070BD0000DD
:1023700030B585B000240094019402940394006861
:102380001449884224D11448816941F48041816113
:10239000816901F480410491816941F00401816106
:1023A00080690E4D00F0040004904FF4007000901E
:1023B000022001900320039069462846FEF7F4FFAF
:1023C0002815CDE90004694628460294FEF7ECFF83
:1023D00005B030BD00380140001002400008014047
:1023E0002DE9F843044690F84100984616460D46FC
:1023F000202802D00220BDE8F88385B17EB10020FC
:102400006064212084F84100FFF7C4F8A684814667
:10241000E684A0682027B0F5805F02D003E00120A9
:10242000E9E7206910B12E4600250EE000260CE0F9
:102430008021204600F0F2FBA8B9C6B116F8010BC6
:1024400021684860E08C401EE084E08C4B464FF0F1
:102450000002CDF800800028EAD14FF0400120466C
:1024600000F0DCFB40B184F841700320C3E735F88D
:10247000020BC0F30800E3E784F841700020BAE7DC
:10248000FEE7000030B585B00024184800940194A0
:1024900002940394816941F020018161816901F016
:1024A00020010491816941F004018161816901F099
:1024B00004010491816941F00801816180690C4D3A
:1024C00000F008000490002203212846FFF75CF882
:1024D000032000900120CDE9010402200390694609
:1024E0002846FEF761FF05B030BD00000010024035
:1024F000000C014010B58AB0002407941C216846E6
:102500000894FDF710FF16484FF080410160472105
:10251000C0E9011440F2E731C0E903148461FFF718
:102520005AFE08B1FEF73DFF079407A90C4808942E
:10253000FFF750FB08B1FEF734FF6020CDE900043F
:1025400002940022694606480494FFF7DEFD08B1B4
:10255000FEF727FF0248FFF7B3FD0AB010BD0000E9
:10256000A800002010B58CB024216846FDF7DBFEE2
:1025700000241648099414490A94C0E900144FF63F
:10258000FF71C0E90241046184610320CDE90004C8
:102590000120CDE902040494CDE905400794694681
:1025A0000A480894FFF730FC08B1FEF7FAFE0994D8
:1025B00009A906480A94FFF70DFB002801D0FEF791
:1025C000F0FE0CB010BD000000040040F000002040
:1025D00010B586B000241748009401940294039427
:1025E000049413490594016041F61F41C0E90114A8
:1025F0006321C0E903148461FFF720FB08B1FEF7F3
:10260000D0FE4FF48050009069460A48FFF78EFBD9
:1026100008B1FEF7C6FE049404A906480594FFF726
:10262000D9FA002801D0FEF7BCFE06B010BD0000AC
:1026300000080040380100200C4810B50A4901602C
:102640004FF4E1314160002181600C22C160C0E99A
:1026500004128161C161FFF758FE002803D0BDE874
:102660001040FEF79EBE10BD0038014080010020E2
:10267000FEE700002DE9F047044608A81D4690E853
:1026800080070020A06060612160E0600B4820614D
:102690000A20A061084616463C21FFF731FC66601F
:1026A000C4E90757A4F82480C4F828903046A4F859
:1026B0002CA02946BDE8F047FFF7CEBD0000A54499
:1026C00070B504460D1E006AA18C1BDD0122FEF7C9
:1026D0005BFFA18D0022A06AFEF756FFE06938B1CA
:1026E000042809D008286068006809D0056470BD16
:1026F00060680068456370BD60680068856370BD90
:10270000C56370BD1CDA0022FEF73EFFA18D0122D9
:10271000A06AFEF739FF6842E1691BE06168096859
:10272000486370BD042905D008296168096805D08F
:10273000086470BD61680968886370BDC86370BD56
:102740000122FEF721FFA18D0122A06AFEF71CFFE6
:10275000E16900200029E5D1E0E700002DE9F04122
:10276000054600680068406A06B2A868341AB4F5E5
:10277000004F01DBA4F5803414F5004F01DA04F5B5
:102780008034686920446861A86900F0B7FC0A4990
:1027900000F0BEFB0746204600F098FC296900F0D7
:1027A000B7FB394600F0B4FB044900F0EFFCC5E983
:1027B0000260BDE8F081000000007A440000704231
:1027C000FEE72DE9F0410446016AC06800F0DCFD37
:1027D0000146A061A06A00F02DFBA062216900F013
:1027E000A1FD01D22069A0626169A06A00F09AFC93
:1027F00001D26069A062D4E90651284600F0C4FD08
:102800000146A06800F0C2FC0746A16A606800F0BB
:10281000BDFC06462946206800F0B8FC314600F0B1
:1028200009FB394600F006FB0546216900F07AFDF8
:1028300000D225696169284600F074FC00D2656900
:10284000E5622846BDE8F08130B5DDE903450EC0FC
:10285000002132C040F81819C161816230BD704753
:102860007047FEF79DBE30B58FB028216846FDF752
:102870005AFD14210AA8FDF756FD01210804CDE9EF
:1028800000100024029402250491CDE907504FF472
:10289000E01009906846FEF7F7FF08B172B6FEE750
:1028A0000F20CDE90A054FF48060CDE90C400221EC
:1028B0000AA80E94FEF70CFF002801D072B6FEE7BE
:1028C0000FB030BD704700000148FFF761BB00004A
:1028D00038010020F0B50268194B1A4C1A4D4FF020
:1028E0008047984205D0B84203D0A04201D0A84208
:1028F00003D122F070064A683243984205D0B842AC
:1029000003D0A04201D0A84203D122F44074CA6887
:1029100022434C6922F08002224302608A68C2622C
:102920000A688262984201D109690163012141610B
:102930000169C90703D0016921F001010161F0BDFE
:10294000002C0140000400400008004010B501F0D8
:102950001F030121046A99408C430462016A9A4072
:102960001143016210BD10B5846842EA032224F4C9
:102970007F440A432243826010BD826822F07002C5
:102980000A4342F0070181607047000030B5036AD6
:10299000026A22F0010202624268846924F073052F
:1029A0000C682C4323F002058B682B430A4DA84288
:1029B0000BD123F00805CB6822F440722B434D69FC
:1029C00023F0040315438A692A43426084614968FD
:1029D0004163036230BD0000002C014030B5026A43
:1029E000036A23F010030362436884690D6824F4CA
:1029F000E64444EA05248D6822F0200242EA0512EA
:102A00000B4DA8420ED1CD6822F0800242EA051299
:102A10004D6923F4406343EA85038D6922F0400247
:102A200043EA85034360846149688163026230BD83
:102A3000002C014030B5036A026A22F480720262FF
:102A40004268C46923F4007324F073050C682C43B6
:102A50008D6843EA05230C4DA8420ED1CD6823F4BE
:102A6000006343EA05234D6922F4405242EA05120D
:102A70008D6923F4806342EA05124260C4614968AB
:102A8000C163036230BD0000002C014030B5046A10
:102A9000026A22F4805202624268C3690D6823F41C
:102AA000E64343EA05238D6824F4005444EA0534E0
:102AB000064DA84204D14D6922F4804242EA8512B3
:102AC0004260C36149680164046230BD002C01406A
:102AD00010B5036A046A24F001040462846924F0D6
:102AE000F00444EA021423F00A020A4384610262F9
:102AF00010BD10B5036A046A24F0100404628469EE
:102B000023F0A00324F4704444EA023243EA0111A2
:102B10008261016210BD01680C3151E8002F22F47E
:102B2000907241E80023002BF5D10168143151E87F
:102B3000002F22F0010241E80023002BF5D1016BA8
:102B4000012909D101680C3151E8002F22F010024F
:102B500041E80023002BF5D1202180F8421000210C
:102B60000163704770B5044600680169E26821F4AA
:102B70004051114301612169A0680843616908431C
:102B80002168CA6841F20C639A430243CA60206814
:102B90004169A26921F44071114341611E492068D5
:102BA000884202D1FEF73AFE01E0FEF727FE00EB75
:102BB000C00101EB0012606864218000B2FBF0F3F9
:102BC000B3FBF1F36FF018067343B2FBF0F5B2FB01
:102BD000F0F605EB8305322303EB0515B5FBF1F5A4
:102BE000B6FBF1F605F0F00505EB0615B2FBF0F6C5
:102BF000B2FBF0F0B0FBF1F06FF01802504306EBBF
:102C0000800003EB0010B0FBF1F0216800F00F0032
:102C10002844886070BD0000003801402DE9F84369
:102C2000984617460D460446089E24E0701C22D0A4
:102C3000FEF7B0FCA0EB0800B0421AD8CEB1206875
:102C4000C168490717D5802D15D0402D13D00168D4
:102C5000C94309070FD40168002540680090204649
:102C6000FFF759FF0820606484F840500120BDE858
:102C7000F8830320FBE72068006835EA000004D0F1
:102C80000020B842D2D00020F1E70120F9E7FEE7AA
:102C90000149086070470000100000202DE9FC4742
:102CA000DFF8608081460F46D8F80000002827D062
:102CB00000242546144E0EE059F8250000F08EF849
:102CC000CDE90001301911A26421FDF789FA00282D
:102CD00003DD04446D1CBD42EEDB002C10DD311918
:102CE0000D2001F8010C0A203055641CD8F80000B2
:102CF00002B0A2B2BDE8F04764230349FFF770BBFE
:102D0000BDE8FC8710000020C8010020252E326697
:102D10002C000000490050EAC12018BF04204A0DD1
:102D200018BF40F0010040F2FF72B2EB515F08BFE4
:102D300040F00200012808BF052070470907090E6E
:102D4000002804DB00F1E02080F80014704700F058
:102D50000F0000F1E02080F8141D704730380A2879
:102D600001D201207047002070470000FEF720FCD0
:102D7000FFF779FDFFF786FBFFF7F4FBFFF75CFC3D
:102D8000FFF7B8FBFFF724FCFEF76AFAFEF788FAB4
:102D90000348FEF79FFF41F6C810FEF7ADFAFEE7C5
:102DA0003801002010B500290AD00878002807D083
:102DB00005487844FDF744FE002801D0002010BDEE
:102DC0000248784410BD0000A20700009A070000E6
:102DD0000808A0F500114FEA3101704743004FEA9F
:102DE000D30C4FEA3C0C43401FBF40070CF160512D
:102DF00013F0FE4F70471CF0006F03D100200CF061
:102E0000004170470CF0004343EA507010B540EAAF
:102E1000CC0000F03CFA00BF000000924FEA000135
:102E2000FFF7D6BF4FF000414FF00000A1F50021A1
:102E30007047000090EA010F48BF81F0004100F1A7
:102E4000AA82421A3CBF801A89184FEAD0524FF02A
:102E50007F4C1CEA410FA2EBD15318BF9CEA026FD2
:102E600000F03B804FF0004C4CEA00204CEA01217E
:102E700021FA03FC10EB0C0C1ED202F1FF325FEAC8
:102E80001C2040EBC25038BF70471CF07F0F4FEA48
:102E9000400C18BFBCF17F4F38BF7047C3F120030F
:102EA000994008BF20F00100BCF17F4F38BF704748
:102EB000A0F1C04000F031BA4FEA3C00000A40EBFC
:102EC000C25028BF1CF0FF0F4FEA400CE6D018BFDD
:102ED000BCF17F4F38BF7047EAE79CEA026F05D02C
:102EE00010EA5C0F08BF00F00040704710B500F01A
:102EF000CEF900BF64FBBE3E401058BFC0F1404059
:102F0000491058BFC1F140418142EFF30080704742
:102F10004FF47F0C1CEAD0121EBF1CEAD11392EAB8
:102F20000C0F93EA0C0F00F0858090EA010F48BF68
:102F300042F4807240F4000C41F400002CF07F4118
:102F400020F07F4000B58142A2EB03020FF2081C83
:102F5000ACEB504EC0F100009EF800E04FEA4E0E80
:102F600000FB0EFC38BF49004FEA2C1C02F5FA02A8
:102F70000CFB0EF34FEACE1E4FEA112C4FEAC12193
:102F80000EEB635E42EB22420EFB0CFC4FEA1C533D
:102F900000FB03114FEA112C4FEA01310EFB0CFC30
:102FA0004FEADC4C00FB0C11C14228BF09184CEB66
:102FB00003335DF804EB10EB410143EBC250B2F573
:102FC0007C0F38BF704729D512F0F00F1CBF00F1FD
:102FD000C04000F00040704700818283848586876E
:102FE00088898B8C8D8E8F919293959697999A9CC8
:102FF0009D9FA0A2A3A5A7A8AAACAEB0B2B3B5B737
:10300000B9BCBEC0C2C5C7C9CCCED1D4D7D9DCDF0C
:10301000E2E6E9ECF0F3F7FAFE0000004FEA400CBC
:103020000CF1807CBCF17E4F28BF7047B0F1C040EE
:1030300000F073B990EA010F0CEAD11348BF42F4D3
:103040008072624538BF634507D213F47F0F16D0F4
:1030500080EA010000F00040704710B500F017F959
:10306000097EFC3E00F005B880EA010000F0004057
:10307000704780EA010000F0004000F04EB912F401
:103080007F0F04BF0248704780EA010000F045B995
:103090000000C07F41000B0ED3F19E0208D950F40E
:1030A00000034FEA032323FA02F048BF404270476F
:1030B00010B500F0ECF800BF499224800020704762
:1030C0006FF0004282EA20007047000010F00041DB
:1030D00048BF4042B0FA80F310FA03F2C3F19D03F7
:1030E0000BD051EAC35101EB1220530638BF704791
:1030F00000F1010008BF20F001007047B0FA80F332
:1031000010FA03F2C3F19D030AD0D90501EB122096
:10311000530638BF704700F1010008BF20F00100DE
:103120007047000050EA010C00F113801CF5000FFD
:1031300058BFBCF5000F01D48842704707D710F57F
:10314000000F58BF11F5000F15D48842704789420F
:1031500070471CF5000F04D5BCF5000FF7D5814270
:1031600070474FF0807C1CEB400F38BF1CEB410FC9
:1031700001D28142704710B500F089F892244900CD
:103180004FF000504FF08051FFF7B6BE4FF47F0C68
:103190001CEAD0121EBF1CEAD11392EA0C0F93EA6C
:1031A0000C0F00F0478090EA010F48BF42F4807294
:1031B0004FF0004C4CEA00204CEA012102EB0302E4
:1031C000A0FB0113A2F50002002918BF43F0010380
:1031D0005B0028BF4FEA330342EB22425FEA132C25
:1031E0004CEBC2502EBFBCEB436FB2F57C0F704767
:1031F0004FEA036CBCF1004F08BF20F00100B2F5AC
:103200007C0F38BF70470BD582F0FF0212F5803F6C
:10321000C8BF704700F1C040D8BF00F00040704701
:1032200000F5000C5FEA4C0C48BF7047B0F1C0409D
:1032300000F073B890EA010F0CEAD11348BF42F4D2
:103240008072624538BF634504D280EA010000F015
:103250000040704710B500F01AF800BF8900013E29
:1032600000F007B800F009B85FEA410C5FEA1C6C97
:1032700008D080EA010000F050B85FEA400C5FEA35
:103280001C6CF6D14FF00040A0F5800070470EF1A5
:10329000020E2EF0030E5EF8044B244204D44FEAD3
:1032A0004102B2F17F4F11D84FEA4003B3F17F4F93
:1032B0000CD80ED14FEAD07CB2F17F4F0CEB4C0C06
:1032C0000CF1020C08BF4CEBD17C04E04FF0080C71
:1032D00001E04FEAD17C0CEB4C0324FA03F404F038
:1032E0000704B4F1040C06D20EEB840CBDE81040C8
:1032F0004CF0010C6047DFE80CF0070802024FF0C9
:103300000040A0F5800010BD0846420018BFD2F171
:10331000807288BF00F0004010BDFF2141EAD0500C
:10332000C005704751EA000C00F113801CF5000F36
:1033300058BFBCF5000F01D48142704707D711F583
:10334000000F58BF10F5000F15D481427047894215
:1033500070471CF5000F04D5BCF5000FF7D5884267
:1033600070474FF0807C1CEB410F38BF1CEB400FC7
:1033700001D28842704780EA010081EA000180EAB8
:103380000100FFF7F8BE000090EA010F48BF81F08E
:1033900000413FF556AD421A04D882F00042A0EB3E
:1033A000020011444FEAD0524FF07F4C1CEA410F0B
:1033B000A2EBD15318BF9CEA026F4AD04FF0004CE9
:1033C0004CEA00204CEA012121FA03FCB0EB0C0C82
:1033D0000FD412F0FE0F36D05FEA4C001DD500125C
:1033E00040EBC25038BF70471CF03F0F18BF70470A
:1033F0000BE0A2F101025FEA1C2040EBC25038BF93
:1034000070471CF07F0F18BF7047C3F1200399402D
:1034100014BF401E20F00100704780084FEA1223BD
:1034200008BF7047B0FA80FCA2EB0C02CCF1280C6C
:1034300060FA0CF093EA122F04BF00EBC250704701
:103440004FEAC3707047130A5FEADC1008BF704789
:10345000F6E79CEA026F04D010EA5C0F08BF002078
:10346000704710B5FFF713FF40DFF63E81F00040D4
:103470007047FDF75BB8010202030405060708095F
:103480000A0B0C0D0E0F10100000000000000000D1
:1034900001020304060708090000000001020304FA
:1034A00002400000000000A00000000005400000F5
:1034B000000000C8000000000C4000000000409C1C
:1034C00000000000194000000020BCBE0000000009
:1034D00034400000BFC91B8E00000004B54000004E
:1034E000504BCFD06607E2CF010000006C410000D6
:1034F0003E8251AADFEEA73401000000D94200004D
:10350000DCB5A0E23A301F97FFFFFFFFB445000093
:10351000FD25A0C8E9A3C14FFFFFFFFFFF3F00004B
:103520000000008000000000FF3F0000000000805D
:1035300000000000703500080000002018000000A6
:1035400028010008883500081800002078080000CD
:10355000440100081C00000043000000F8FFFFFFCA
:103560000C0000000E0000000F0000002E00000004
:1035700001000000100000000000000000127A00AE
:08358000000000000000000043
:04000005080000ED02
:00000001FF
